{
  "address": "0x7fEe74f33B3159b9A39A12C4c72Ed3561FF340a2",
  "abi": [
    {
      "inputs": [
        {
          "internalType": "contract IExecutor",
          "name": "executor_",
          "type": "address"
        },
        {
          "internalType": "contract IUserRegistry",
          "name": "userRegistry_",
          "type": "address"
        },
        {
          "internalType": "uint256",
          "name": "votingPeriod_",
          "type": "uint256"
        }
      ],
      "stateMutability": "nonpayable",
      "type": "constructor"
    },
    {
      "inputs": [
        {
          "internalType": "address",
          "name": "voter",
          "type": "address"
        }
      ],
      "name": "GovernorAlreadyCastVote",
      "type": "error"
    },
    {
      "inputs": [
        {
          "internalType": "uint256",
          "name": "targets",
          "type": "uint256"
        },
        {
          "internalType": "uint256",
          "name": "calldatas",
          "type": "uint256"
        },
        {
          "internalType": "uint256",
          "name": "values",
          "type": "uint256"
        }
      ],
      "name": "GovernorInvalidProposalLength",
      "type": "error"
    },
    {
      "inputs": [],
      "name": "GovernorInvalidVoteType",
      "type": "error"
    },
    {
      "inputs": [
        {
          "internalType": "uint256",
          "name": "votingPeriod",
          "type": "uint256"
        }
      ],
      "name": "GovernorInvalidVotingPeriod",
      "type": "error"
    },
    {
      "inputs": [
        {
          "internalType": "uint256",
          "name": "proposalId",
          "type": "uint256"
        }
      ],
      "name": "GovernorNonexistentProposal",
      "type": "error"
    },
    {
      "inputs": [
        {
          "internalType": "address",
          "name": "account",
          "type": "address"
        }
      ],
      "name": "GovernorOnlyExecutor",
      "type": "error"
    },
    {
      "inputs": [
        {
          "internalType": "address",
          "name": "account",
          "type": "address"
        }
      ],
      "name": "GovernorOnlyProposer",
      "type": "error"
    },
    {
      "inputs": [
        {
          "internalType": "uint256",
          "name": "proposalId",
          "type": "uint256"
        },
        {
          "internalType": "uint256",
          "name": "votes",
          "type": "uint256"
        }
      ],
      "name": "GovernorProposalAlreadyVotedOn",
      "type": "error"
    },
    {
      "inputs": [
        {
          "internalType": "uint256",
          "name": "proposalId",
          "type": "uint256"
        },
        {
          "internalType": "enum IGovernor.ProposalState",
          "name": "current",
          "type": "uint8"
        },
        {
          "internalType": "bytes32",
          "name": "expectedStates",
          "type": "bytes32"
        }
      ],
      "name": "GovernorUnexpectedProposalState",
      "type": "error"
    },
    {
      "inputs": [
        {
          "internalType": "uint8",
          "name": "bits",
          "type": "uint8"
        },
        {
          "internalType": "uint256",
          "name": "value",
          "type": "uint256"
        }
      ],
      "name": "SafeCastOverflowedUintDowncast",
      "type": "error"
    },
    {
      "anonymous": false,
      "inputs": [
        {
          "indexed": false,
          "internalType": "address",
          "name": "oldExecutor",
          "type": "address"
        },
        {
          "indexed": false,
          "internalType": "address",
          "name": "newExecutor",
          "type": "address"
        }
      ],
      "name": "ExecutorChange",
      "type": "event"
    },
    {
      "anonymous": false,
      "inputs": [
        {
          "indexed": false,
          "internalType": "uint256",
          "name": "proposalId",
          "type": "uint256"
        }
      ],
      "name": "ProposalCanceled",
      "type": "event"
    },
    {
      "anonymous": false,
      "inputs": [
        {
          "indexed": false,
          "internalType": "uint256",
          "name": "proposalId",
          "type": "uint256"
        },
        {
          "indexed": false,
          "internalType": "address",
          "name": "proposer",
          "type": "address"
        },
        {
          "indexed": false,
          "internalType": "address[]",
          "name": "targets",
          "type": "address[]"
        },
        {
          "indexed": false,
          "internalType": "uint256[]",
          "name": "values",
          "type": "uint256[]"
        },
        {
          "indexed": false,
          "internalType": "string[]",
          "name": "signatures",
          "type": "string[]"
        },
        {
          "indexed": false,
          "internalType": "bytes[]",
          "name": "calldatas",
          "type": "bytes[]"
        },
        {
          "indexed": false,
          "internalType": "uint256",
          "name": "voteStart",
          "type": "uint256"
        },
        {
          "indexed": false,
          "internalType": "uint256",
          "name": "voteEnd",
          "type": "uint256"
        },
        {
          "indexed": false,
          "internalType": "string",
          "name": "description",
          "type": "string"
        }
      ],
      "name": "ProposalCreated",
      "type": "event"
    },
    {
      "anonymous": false,
      "inputs": [
        {
          "indexed": false,
          "internalType": "uint256",
          "name": "proposalId",
          "type": "uint256"
        }
      ],
      "name": "ProposalExecuted",
      "type": "event"
    },
    {
      "anonymous": false,
      "inputs": [
        {
          "indexed": false,
          "internalType": "contract IUserRegistry",
          "name": "oldUserRegistry",
          "type": "address"
        },
        {
          "indexed": false,
          "internalType": "contract IUserRegistry",
          "name": "newUserRegistry",
          "type": "address"
        }
      ],
      "name": "UserRegistryUpdated",
      "type": "event"
    },
    {
      "anonymous": false,
      "inputs": [
        {
          "indexed": true,
          "internalType": "address",
          "name": "voter",
          "type": "address"
        },
        {
          "indexed": false,
          "internalType": "uint256",
          "name": "proposalId",
          "type": "uint256"
        },
        {
          "indexed": false,
          "internalType": "uint8",
          "name": "support",
          "type": "uint8"
        },
        {
          "indexed": false,
          "internalType": "uint256",
          "name": "weight",
          "type": "uint256"
        },
        {
          "indexed": false,
          "internalType": "string",
          "name": "reason",
          "type": "string"
        }
      ],
      "name": "VoteCast",
      "type": "event"
    },
    {
      "anonymous": false,
      "inputs": [
        {
          "indexed": false,
          "internalType": "uint256",
          "name": "oldVotingPeriod",
          "type": "uint256"
        },
        {
          "indexed": false,
          "internalType": "uint256",
          "name": "newVotingPeriod",
          "type": "uint256"
        }
      ],
      "name": "VotingPeriodSet",
      "type": "event"
    },
    {
      "inputs": [],
      "name": "CLOCK_MODE",
      "outputs": [
        {
          "internalType": "string",
          "name": "",
          "type": "string"
        }
      ],
      "stateMutability": "view",
      "type": "function"
    },
    {
      "inputs": [],
      "name": "COUNTING_MODE",
      "outputs": [
        {
          "internalType": "string",
          "name": "",
          "type": "string"
        }
      ],
      "stateMutability": "pure",
      "type": "function"
    },
    {
      "inputs": [
        {
          "internalType": "address[]",
          "name": "targets",
          "type": "address[]"
        },
        {
          "internalType": "uint256[]",
          "name": "values",
          "type": "uint256[]"
        },
        {
          "internalType": "bytes[]",
          "name": "calldatas",
          "type": "bytes[]"
        },
        {
          "internalType": "bytes32",
          "name": "descriptionHash",
          "type": "bytes32"
        }
      ],
      "name": "cancel",
      "outputs": [
        {
          "internalType": "uint256",
          "name": "",
          "type": "uint256"
        }
      ],
      "stateMutability": "nonpayable",
      "type": "function"
    },
    {
      "inputs": [
        {
          "internalType": "uint256",
          "name": "proposalId",
          "type": "uint256"
        },
        {
          "internalType": "uint8",
          "name": "support",
          "type": "uint8"
        }
      ],
      "name": "castVote",
      "outputs": [
        {
          "internalType": "uint256",
          "name": "",
          "type": "uint256"
        }
      ],
      "stateMutability": "nonpayable",
      "type": "function"
    },
    {
      "inputs": [
        {
          "internalType": "uint256",
          "name": "proposalId",
          "type": "uint256"
        },
        {
          "internalType": "uint8",
          "name": "support",
          "type": "uint8"
        },
        {
          "internalType": "string",
          "name": "reason",
          "type": "string"
        }
      ],
      "name": "castVoteWithReason",
      "outputs": [
        {
          "internalType": "uint256",
          "name": "",
          "type": "uint256"
        }
      ],
      "stateMutability": "nonpayable",
      "type": "function"
    },
    {
      "inputs": [],
      "name": "clock",
      "outputs": [
        {
          "internalType": "uint256",
          "name": "",
          "type": "uint256"
        }
      ],
      "stateMutability": "view",
      "type": "function"
    },
    {
      "inputs": [
        {
          "internalType": "address[]",
          "name": "targets",
          "type": "address[]"
        },
        {
          "internalType": "uint256[]",
          "name": "values",
          "type": "uint256[]"
        },
        {
          "internalType": "bytes[]",
          "name": "calldatas",
          "type": "bytes[]"
        },
        {
          "internalType": "bytes32",
          "name": "descriptionHash",
          "type": "bytes32"
        }
      ],
      "name": "execute",
      "outputs": [
        {
          "internalType": "uint256",
          "name": "",
          "type": "uint256"
        }
      ],
      "stateMutability": "payable",
      "type": "function"
    },
    {
      "inputs": [
        {
          "internalType": "uint256",
          "name": "proposalId",
          "type": "uint256"
        }
      ],
      "name": "getProposalVotesCount",
      "outputs": [
        {
          "internalType": "uint256",
          "name": "",
          "type": "uint256"
        }
      ],
      "stateMutability": "view",
      "type": "function"
    },
    {
      "inputs": [
        {
          "internalType": "address",
          "name": "account",
          "type": "address"
        }
      ],
      "name": "getVotes",
      "outputs": [
        {
          "internalType": "uint8",
          "name": "",
          "type": "uint8"
        }
      ],
      "stateMutability": "view",
      "type": "function"
    },
    {
      "inputs": [
        {
          "internalType": "uint256",
          "name": "proposalId",
          "type": "uint256"
        },
        {
          "internalType": "address",
          "name": "account",
          "type": "address"
        }
      ],
      "name": "hasVoted",
      "outputs": [
        {
          "internalType": "bool",
          "name": "",
          "type": "bool"
        }
      ],
      "stateMutability": "view",
      "type": "function"
    },
    {
      "inputs": [
        {
          "internalType": "address[]",
          "name": "targets",
          "type": "address[]"
        },
        {
          "internalType": "uint256[]",
          "name": "values",
          "type": "uint256[]"
        },
        {
          "internalType": "bytes[]",
          "name": "calldatas",
          "type": "bytes[]"
        },
        {
          "internalType": "bytes32",
          "name": "descriptionHash",
          "type": "bytes32"
        }
      ],
      "name": "hashProposal",
      "outputs": [
        {
          "internalType": "uint256",
          "name": "",
          "type": "uint256"
        }
      ],
      "stateMutability": "pure",
      "type": "function"
    },
    {
      "inputs": [],
      "name": "name",
      "outputs": [
        {
          "internalType": "string",
          "name": "",
          "type": "string"
        }
      ],
      "stateMutability": "view",
      "type": "function"
    },
    {
      "inputs": [
        {
          "internalType": "uint256",
          "name": "proposalId",
          "type": "uint256"
        }
      ],
      "name": "proposalDeadline",
      "outputs": [
        {
          "internalType": "uint256",
          "name": "",
          "type": "uint256"
        }
      ],
      "stateMutability": "view",
      "type": "function"
    },
    {
      "inputs": [
        {
          "internalType": "uint256",
          "name": "proposalId",
          "type": "uint256"
        }
      ],
      "name": "proposalProposer",
      "outputs": [
        {
          "internalType": "address",
          "name": "",
          "type": "address"
        }
      ],
      "stateMutability": "view",
      "type": "function"
    },
    {
      "inputs": [
        {
          "internalType": "uint256",
          "name": "proposalId",
          "type": "uint256"
        }
      ],
      "name": "proposalSnapshot",
      "outputs": [
        {
          "internalType": "uint256",
          "name": "",
          "type": "uint256"
        }
      ],
      "stateMutability": "view",
      "type": "function"
    },
    {
      "inputs": [
        {
          "internalType": "uint256",
          "name": "proposalId",
          "type": "uint256"
        }
      ],
      "name": "proposalVotes",
      "outputs": [
        {
          "internalType": "uint256",
          "name": "againstVotes",
          "type": "uint256"
        },
        {
          "internalType": "uint256",
          "name": "forVotes",
          "type": "uint256"
        },
        {
          "internalType": "uint256",
          "name": "abstainVotes",
          "type": "uint256"
        }
      ],
      "stateMutability": "view",
      "type": "function"
    },
    {
      "inputs": [
        {
          "internalType": "address[]",
          "name": "targets",
          "type": "address[]"
        },
        {
          "internalType": "uint256[]",
          "name": "values",
          "type": "uint256[]"
        },
        {
          "internalType": "bytes[]",
          "name": "calldatas",
          "type": "bytes[]"
        },
        {
          "internalType": "string",
          "name": "description",
          "type": "string"
        }
      ],
      "name": "propose",
      "outputs": [
        {
          "internalType": "uint256",
          "name": "",
          "type": "uint256"
        }
      ],
      "stateMutability": "nonpayable",
      "type": "function"
    },
    {
      "inputs": [],
      "name": "quorum",
      "outputs": [
        {
          "internalType": "uint8",
          "name": "",
          "type": "uint8"
        }
      ],
      "stateMutability": "pure",
      "type": "function"
    },
    {
      "inputs": [
        {
          "internalType": "uint256",
          "name": "newVotingPeriod",
          "type": "uint256"
        }
      ],
      "name": "setVotingPeriod",
      "outputs": [],
      "stateMutability": "nonpayable",
      "type": "function"
    },
    {
      "inputs": [
        {
          "internalType": "uint256",
          "name": "proposalId",
          "type": "uint256"
        }
      ],
      "name": "state",
      "outputs": [
        {
          "internalType": "enum IGovernor.ProposalState",
          "name": "",
          "type": "uint8"
        }
      ],
      "stateMutability": "view",
      "type": "function"
    },
    {
      "inputs": [],
      "name": "userRegistry",
      "outputs": [
        {
          "internalType": "contract IUserRegistry",
          "name": "",
          "type": "address"
        }
      ],
      "stateMutability": "view",
      "type": "function"
    },
    {
      "inputs": [],
      "name": "votingPeriod",
      "outputs": [
        {
          "internalType": "uint256",
          "name": "",
          "type": "uint256"
        }
      ],
      "stateMutability": "view",
      "type": "function"
    }
  ],
  "transactionHash": "0xc825244e18bcd6a6f9293d86b5b23ff45881d488eb0adf02987c5378e3442857",
  "args": [
    "0x9EE089f9d09Cc2c0a2c193237b3492e001761Be2",
    "0xBf26ADb0c610B7D3862A0A4deaf15B2186C91d6D",
    50400
  ],
  "numDeployments": 1,
  "solcInputHash": "a7daef901358217ccbb33396f758b6c0",
  "bytecode": "0x60806040523480156200001157600080fd5b5060405162001e7738038062001e77833981016040819052620000349162000144565b60408051808201909152600981526854726163657244414f60b81b6020820152600080546001600160a01b0319166001600160a01b0386161790558290829085600162000082838262000231565b5050506200009681620000c160201b60201c565b50600580546001600160a01b0319166001600160a01b039290921691909117905550620002fd915050565b80600003620000ea5760405163f1cfbf0560e01b81526000600482015260240160405180910390fd5b60035460408051918252602082018390527f7e3f7f0708a84de9203036abaa450dccc85ad5ff52f78c170f3edb55cf5e8828910160405180910390a1600355565b6001600160a01b03811681146200014157600080fd5b50565b6000806000606084860312156200015a57600080fd5b835162000167816200012b565b60208501519093506200017a816200012b565b80925050604084015190509250925092565b634e487b7160e01b600052604160045260246000fd5b600181811c90821680620001b757607f821691505b602082108103620001d857634e487b7160e01b600052602260045260246000fd5b50919050565b601f8211156200022c57600081815260208120601f850160051c81016020861015620002075750805b601f850160051c820191505b81811015620002285782815560010162000213565b5050505b505050565b81516001600160401b038111156200024d576200024d6200018c565b62000265816200025e8454620001a2565b84620001de565b602080601f8311600181146200029d5760008415620002845750858301515b600019600386901b1c1916600185901b17855562000228565b600085815260208120601f198616915b82811015620002ce57888601518255948401946001909101908401620002ad565b5085821015620002ed5787850151600019600388901b60f8161c191681555b5050505050600190811b01905550565b611b6a806200030d6000396000f3fe6080604052600436106101755760003560e01c806356781388116100cb5780639ab24eb01161007f578063c59057e411610059578063c59057e4146104af578063dd4e2ba5146104cf578063ea0217cf1461051557600080fd5b80639ab24eb014610435578063bc597d9f14610455578063c01f9e371461047557600080fd5b80637b3c71d3116100b05780637b3c71d3146103e25780637d5e81e21461040257806391ddadf41461042257600080fd5b806356781388146103a25780635c7460d6146103c257600080fd5b80632d63f6931161012d578063452115d611610107578063452115d6146102e75780634bf5d7e914610307578063544ffc9c1461034d57600080fd5b80632d63f693146102535780633e4f49e61461028a57806343859632146102b757600080fd5b8063143489d01161015e578063143489d0146101c45780631703a0181461021e5780632656227d1461024057600080fd5b806302a251a31461017a57806306fdde03146101a2575b600080fd5b34801561018657600080fd5b5061018f610537565b6040519081526020015b60405180910390f35b3480156101ae57600080fd5b506101b7610547565b604051610199919061124c565b3480156101d057600080fd5b506102066101df36600461125f565b6000908152600260205260409020546801000000000000000090046001600160a01b031690565b6040516001600160a01b039091168152602001610199565b34801561022a57600080fd5b5060195b60405160ff9091168152602001610199565b61018f61024e3660046114b9565b6105d9565b34801561025f57600080fd5b5061018f61026e36600461125f565b60009081526002602052604090205467ffffffffffffffff1690565b34801561029657600080fd5b506102aa6102a536600461125f565b6106bd565b6040516101999190611581565b3480156102c357600080fd5b506102d76102d236600461158f565b6107e6565b6040519015158152602001610199565b3480156102f357600080fd5b5061018f6103023660046114b9565b610816565b34801561031357600080fd5b5060408051808201909152600e81527f6d6f64653d74696d657374616d7000000000000000000000000000000000000060208201526101b7565b34801561035957600080fd5b5061038761036836600461125f565b6000908152600460205260409020805460018201546002909201549092565b60408051938452602084019290925290820152606001610199565b3480156103ae57600080fd5b5061018f6103bd3660046115ca565b6108fd565b3480156103ce57600080fd5b50600554610206906001600160a01b031681565b3480156103ee57600080fd5b5061018f6103fd3660046115fa565b610926565b34801561040e57600080fd5b5061018f61041d366004611683565b610978565b34801561042e57600080fd5b504261018f565b34801561044157600080fd5b5061022e610450366004611744565b610c04565b34801561046157600080fd5b5061018f61047036600461125f565b610c0f565b34801561048157600080fd5b5061018f61049036600461125f565b60009081526002602052604090206001015467ffffffffffffffff1690565b3480156104bb57600080fd5b5061018f6104ca3660046114b9565b610c5d565b3480156104db57600080fd5b5060408051808201909152601f81527f737570706f72743d627261766f2671756f72756d3d666f727c616761696e730060208201526101b7565b34801561052157600080fd5b5061053561053036600461125f565b610c97565b005b600061054260035490565b905090565b6060600180546105569061175f565b80601f01602080910402602001604051908101604052809291908181526020018280546105829061175f565b80156105cf5780601f106105a4576101008083540402835291602001916105cf565b820191906000526020600020905b8154815290600101906020018083116105b257829003601f168201915b5050505050905090565b6000806105e886868686610c5d565b905060006105f5826106bd565b9050600381600581111561060b5761060b611549565b1461064157818161061c6003610cf8565b6040516331b75e4d60e01b815260040161063893929190611799565b60405180910390fd5b60008281526002602052604090819020600101805468ff0000000000000000191668010000000000000000179055517f712ae1383f79ac853f8d882153778e0260ef8f03b504e2866e0593e04d2b291f9061069f9084815260200190565b60405180910390a16106b387878787610d1b565b5095945050505050565b6000818152600260205260408120600181015468010000000000000000900460ff16156106ed5750600592915050565b60018101546901000000000000000000900460ff16156107105750600192915050565b60008381526002602052604081205467ffffffffffffffff1690819003610766576040517f6ad0607500000000000000000000000000000000000000000000000000000000815260048101859052602401610638565b600084815260026020526040902060010154429067ffffffffffffffff16818110156107985750600495945050505050565b6107a186610da4565b156107da576000868152600460205260409020805460019091015411156107ce5750600395945050505050565b50600295945050505050565b50600095945050505050565b60008281526004602090815260408083206001600160a01b038516845260030190915290205460ff165b92915050565b60008061082586868686610c5d565b9050600061083282610c0f565b90508015610876576040517ffe4328ad0000000000000000000000000000000000000000000000000000000081526004810183905260248101829052604401610638565b6000828152600260205260409020546801000000000000000090046001600160a01b03166001600160a01b0316336001600160a01b0316146108e6576040517f233d98e3000000000000000000000000000000000000000000000000000000008152336004820152602401610638565b6108f287878787610dcf565b979650505050505050565b60008033905061091e84828560405180602001604052806000815250610eda565b949350505050565b60008033905061096e86828787878080601f016020809104026020016040519081016040528093929190818152602001838380828437600092019190915250610eda92505050565b9695505050505050565b6000338142905060006109948888888880519060200120610c5d565b9050865188511415806109a957508551885114155b806109b357508751155b15610a01578751865188516040517f447b05d0000000000000000000000000000000000000000000000000000000008152600481019390935260248301919091526044820152606401610638565b60008181526002602052604090205467ffffffffffffffff1615610a475780610a29826106bd565b6040516331b75e4d60e01b8152610638929190600090600401611799565b6000610a51610537565b610a5b90846117d1565b90506040518060a00160405280610a7185610f7a565b67ffffffffffffffff168152602001856001600160a01b03168152602001610a9883610f7a565b67ffffffffffffffff9081168252600060208084018290526040938401829052868252600281529083902084518154928601519084167fffffffff0000000000000000000000000000000000000000000000000000000090931692909217680100000000000000006001600160a01b0390931683021781559284015160019093018054606086015160809096015194841668ffffffffffffffffff19909116179415159091029390931769ff00000000000000000019166901000000000000000000921515929092029190911790915589517f7d84a6263ae0d98d3329bd7b46bb4e8d6f98cd35a7adb45c274c8b7fd5ebd5e091849187918d918d91811115610ba357610ba3611278565b604051908082528060200260200182016040528015610bd657816020015b6060815260200190600190039081610bc15790505b508c89888e604051610bf0999897969594939291906118ad565b60405180910390a150979650505050505050565b600061081082610fce565b600080600080610c38856000908152600460205260409020805460018201546002909201549092565b9194509250905080610c4a83856117d1565b610c5491906117d1565b95945050505050565b600084848484604051602001610c769493929190611985565b60408051601f19818403018152919052805160209091012095945050505050565b33610caa6000546001600160a01b031690565b6001600160a01b031614610cec576040517f47096e47000000000000000000000000000000000000000000000000000000008152336004820152602401610638565b610cf581611056565b50565b6000816005811115610d0c57610d0c611549565b600160ff919091161b92915050565b6000546040517fa6cc2c8c0000000000000000000000000000000000000000000000000000000081526001600160a01b039091169063a6cc2c8c903490610d6c908890889088908890600401611985565b6000604051808303818588803b158015610d8557600080fd5b505af1158015610d99573d6000803e3d6000fd5b505050505050505050565b600081815260046020526040812060018101546019111580610dc857508054601911155b9392505050565b600080610dde86868686610c5d565b90506000610deb826106bd565b90506000610df96005610cf8565b610e036004610cf8565b610e0d6001610cf8565b17179050610e1a82610cf8565b811615610e66578282826001610e316005826119d0565b610e3c906002611acd565b610e469190611adc565b60001b186040516331b75e4d60e01b815260040161063893929190611799565b60008381526002602052604090819020600101805469ff00000000000000000019166901000000000000000000179055517f789cf55be980739dad1d0699b93b58e806b51c9d96619bfa8fe0a28abaa7b30c90610ec69085815260200190565b60405180910390a150909695505050505050565b600080610ee6866106bd565b90506000816005811115610efc57610efc611549565b14610f0d57858161061c6000610cf8565b6000610f1886610fce565b60ff169050610f29878787846110d4565b856001600160a01b03167fb8e138887d0aa13bab447e82de9d5c1777041ecd21ca36ba824ff1e6c07ddda488878488604051610f689493929190611aef565b60405180910390a29695505050505050565b600067ffffffffffffffff821115610fca57604080517f6dfcc650000000000000000000000000000000000000000000000000000000008152600481019190915260248101839052604401610638565b5090565b6005546040517f9ab24eb00000000000000000000000000000000000000000000000000000000081526001600160a01b0383811660048301526000921690639ab24eb090602401602060405180830381865afa158015611032573d6000803e3d6000fd5b505050506040513d601f19601f820116820180604052508101906108109190611b17565b80600003611093576040517ff1cfbf0500000000000000000000000000000000000000000000000000000000815260006004820152602401610638565b60035460408051918252602082018390527f7e3f7f0708a84de9203036abaa450dccc85ad5ff52f78c170f3edb55cf5e8828910160405180910390a1600355565b60008481526004602090815260408083206001600160a01b0387168452600381019092529091205460ff1615611141576040517f71c6af490000000000000000000000000000000000000000000000000000000081526001600160a01b0385166004820152602401610638565b6001600160a01b03841660009081526003820160205260409020805460ff1916600117905560ff831661118d578181600001600082825461118291906117d1565b909155506111ff9050565b60001960ff8416016111ad578181600101600082825461118291906117d1565b60011960ff8416016111cd578181600201600082825461118291906117d1565b6040517f06b337c200000000000000000000000000000000000000000000000000000000815260040160405180910390fd5b5050505050565b6000815180845260005b8181101561122c57602081850181015186830182015201611210565b506000602082860101526020601f19601f83011685010191505092915050565b602081526000610dc86020830184611206565b60006020828403121561127157600080fd5b5035919050565b634e487b7160e01b600052604160045260246000fd5b604051601f8201601f1916810167ffffffffffffffff811182821017156112b7576112b7611278565b604052919050565b600067ffffffffffffffff8211156112d9576112d9611278565b5060051b60200190565b80356001600160a01b03811681146112fa57600080fd5b919050565b600082601f83011261131057600080fd5b81356020611325611320836112bf565b61128e565b82815260059290921b8401810191818101908684111561134457600080fd5b8286015b8481101561136657611359816112e3565b8352918301918301611348565b509695505050505050565b600082601f83011261138257600080fd5b81356020611392611320836112bf565b82815260059290921b840181019181810190868411156113b157600080fd5b8286015b8481101561136657803583529183019183016113b5565b600067ffffffffffffffff8311156113e6576113e6611278565b6113f9601f8401601f191660200161128e565b905082815283838301111561140d57600080fd5b828260208301376000602084830101529392505050565b600082601f83011261143557600080fd5b81356020611445611320836112bf565b82815260059290921b8401810191818101908684111561146457600080fd5b8286015b8481101561136657803567ffffffffffffffff8111156114885760008081fd5b8701603f8101891361149a5760008081fd5b6114ab8986830135604084016113cc565b845250918301918301611468565b600080600080608085870312156114cf57600080fd5b843567ffffffffffffffff808211156114e757600080fd5b6114f3888389016112ff565b9550602087013591508082111561150957600080fd5b61151588838901611371565b9450604087013591508082111561152b57600080fd5b5061153887828801611424565b949793965093946060013593505050565b634e487b7160e01b600052602160045260246000fd5b6006811061157d57634e487b7160e01b600052602160045260246000fd5b9052565b60208101610810828461155f565b600080604083850312156115a257600080fd5b823591506115b2602084016112e3565b90509250929050565b60ff81168114610cf557600080fd5b600080604083850312156115dd57600080fd5b8235915060208301356115ef816115bb565b809150509250929050565b6000806000806060858703121561161057600080fd5b843593506020850135611622816115bb565b9250604085013567ffffffffffffffff8082111561163f57600080fd5b818701915087601f83011261165357600080fd5b81358181111561166257600080fd5b88602082850101111561167457600080fd5b95989497505060200194505050565b6000806000806080858703121561169957600080fd5b843567ffffffffffffffff808211156116b157600080fd5b6116bd888389016112ff565b955060208701359150808211156116d357600080fd5b6116df88838901611371565b945060408701359150808211156116f557600080fd5b61170188838901611424565b9350606087013591508082111561171757600080fd5b508501601f8101871361172957600080fd5b611738878235602084016113cc565b91505092959194509250565b60006020828403121561175657600080fd5b610dc8826112e3565b600181811c9082168061177357607f821691505b60208210810361179357634e487b7160e01b600052602260045260246000fd5b50919050565b838152606081016117ad602083018561155f565b826040830152949350505050565b634e487b7160e01b600052601160045260246000fd5b80820180821115610810576108106117bb565b600081518084526020808501945080840160005b8381101561181d5781516001600160a01b0316875295820195908201906001016117f8565b509495945050505050565b600081518084526020808501945080840160005b8381101561181d5781518752958201959082019060010161183c565b600081518084526020808501808196508360051b8101915082860160005b858110156118a057828403895261188e848351611206565b98850198935090840190600101611876565b5091979650505050505050565b60006101208b835260206001600160a01b038c16818501528160408501526118d78285018c6117e4565b915083820360608501526118eb828b611828565b915083820360808501528189518084528284019150828160051b850101838c0160005b8381101561193c57601f1987840301855261192a838351611206565b9486019492509085019060010161190e565b505086810360a0880152611950818c611858565b9450505050508560c08401528460e08401528281036101008401526119758185611206565b9c9b505050505050505050505050565b60808152600061199860808301876117e4565b82810360208401526119aa8187611828565b905082810360408401526119be8186611858565b91505082606083015295945050505050565b60ff8181168382160190811115610810576108106117bb565b600181815b80851115611a24578160001904821115611a0a57611a0a6117bb565b80851615611a1757918102915b93841c93908002906119ee565b509250929050565b600082611a3b57506001610810565b81611a4857506000610810565b8160018114611a5e5760028114611a6857611a84565b6001915050610810565b60ff841115611a7957611a796117bb565b50506001821b610810565b5060208310610133831016604e8410600b8410161715611aa7575081810a610810565b611ab183836119e9565b8060001904821115611ac557611ac56117bb565b029392505050565b6000610dc860ff841683611a2c565b81810381811115610810576108106117bb565b84815260ff8416602082015282604082015260806060820152600061096e6080830184611206565b600060208284031215611b2957600080fd5b8151610dc8816115bb56fea264697066735822122076107849c38d4bf4a66dee545eaa3914d0ae13f735114f606820401a26ebc85564736f6c63430008130033",
  "devdoc": {
    "errors": {
      "GovernorAlreadyCastVote(address)": [
        {
          "details": "The vote was already cast."
        }
      ],
      "GovernorInvalidProposalLength(uint256,uint256,uint256)": [
        {
          "details": "Empty proposal or a mismatch between the parameters length for a proposal call."
        }
      ],
      "GovernorInvalidVoteType()": [
        {
          "details": "The vote type used is not valid for the corresponding counting module."
        }
      ],
      "GovernorInvalidVotingPeriod(uint256)": [
        {
          "details": "The voting period set is not a valid period."
        }
      ],
      "GovernorNonexistentProposal(uint256)": [
        {
          "details": "The `proposalId` doesn't exist."
        }
      ],
      "GovernorOnlyExecutor(address)": [
        {
          "details": "The `account` is not the governance executor."
        }
      ],
      "GovernorOnlyProposer(address)": [
        {
          "details": "The `account` is not a proposer."
        }
      ],
      "GovernorProposalAlreadyVotedOn(uint256,uint256)": [
        {
          "details": "Cannot cancel proposal because it has been voted on."
        }
      ],
      "GovernorUnexpectedProposalState(uint256,uint8,bytes32)": [
        {
          "details": "The current state of a proposal is not the required for performing an operation. The `expectedStates` is a bitmap with the bits enabled for each ProposalState enum position counting from right to left. NOTE: If `expectedState` is `bytes32(0)`, the proposal is expected to not be in any state (i.e. not exist). This is the case when a proposal that is expected to be unset is already initiated (the proposal is duplicated). See {Governor-_encodeStateBitmap}."
        }
      ],
      "SafeCastOverflowedUintDowncast(uint8,uint256)": [
        {
          "details": "Value doesn't fit in an uint of `bits` size."
        }
      ]
    },
    "events": {
      "ExecutorChange(address,address)": {
        "details": "Emitted when the executor used for proposal execution is modified."
      },
      "ProposalCanceled(uint256)": {
        "details": "Emitted when a proposal is canceled."
      },
      "ProposalCreated(uint256,address,address[],uint256[],string[],bytes[],uint256,uint256,string)": {
        "details": "Emitted when a proposal is created."
      },
      "ProposalExecuted(uint256)": {
        "details": "Emitted when a proposal is executed."
      },
      "VoteCast(address,uint256,uint8,uint256,string)": {
        "details": "Emitted when a vote. Note: `support` values should be seen as buckets. Their interpretation depends on the voting module used."
      }
    },
    "kind": "dev",
    "methods": {
      "CLOCK_MODE()": {
        "details": "Machine-readable description of the clock as specified in EIP-6372."
      },
      "COUNTING_MODE()": {
        "details": "See {IGovernor-COUNTING_MODE}."
      },
      "cancel(address[],uint256[],bytes[],bytes32)": {
        "details": "See {IGovernor-cancel}."
      },
      "castVote(uint256,uint8)": {
        "details": "See {IGovernor-castVote}."
      },
      "castVoteWithReason(uint256,uint8,string)": {
        "details": "See {IGovernor-castVoteWithReason}."
      },
      "clock()": {
        "details": "Clock (as specified in EIP-6372) is set to timestamp.."
      },
      "execute(address[],uint256[],bytes[],bytes32)": {
        "details": "See {IGovernor-execute}."
      },
      "getProposalVotesCount(uint256)": {
        "details": "See {IGovernor-getProposalVotesCount}."
      },
      "getVotes(address)": {
        "details": "See {IGovernor-getVotes}."
      },
      "hasVoted(uint256,address)": {
        "details": "See {IGovernor-hasVoted}."
      },
      "hashProposal(address[],uint256[],bytes[],bytes32)": {
        "details": "See {IGovernor-hashProposal}. The proposal id is produced by hashing the ABI encoded `targets` array, the `values` array, the `calldatas` array and the descriptionHash (bytes32 which itself is the keccak256 hash of the description string). This proposal id can be produced from the proposal data which is part of the {ProposalCreated} event. It can even be computed in advance, before the proposal is submitted. Note that the chainId and the governor address are not part of the proposal id computation. Consequently, the same proposal (with same operation and same description) will have the same id if submitted on multiple governors across multiple networks. This also means that in order to execute the same operation twice (on the same governor) the proposer will have to change the description in order to avoid proposal id conflicts."
      },
      "name()": {
        "details": "See {IGovernor-name}."
      },
      "proposalDeadline(uint256)": {
        "details": "See {IGovernor-proposalDeadline}."
      },
      "proposalProposer(uint256)": {
        "details": "Returns the account that created a given proposal."
      },
      "proposalSnapshot(uint256)": {
        "details": "See {IGovernor-proposalSnapshot}."
      },
      "proposalVotes(uint256)": {
        "details": "Accessor to the internal vote counts."
      },
      "propose(address[],uint256[],bytes[],string)": {
        "details": "See {IGovernor-propose}. This function has opt-in frontrunning protection, described in {_isValidDescriptionForProposer}."
      },
      "quorum()": {
        "details": "Minimum number of cast voted required for a proposal to be successful."
      },
      "setVotingPeriod(uint256)": {
        "details": "Update the voting period. This operation can only be performed through a governance proposal. Emits a {VotingPeriodSet} event."
      },
      "state(uint256)": {
        "details": "See {IGovernor-state}."
      }
    },
    "stateVariables": {
      "QUORUM": {
        "details": "Set low value during development, should be adjusted in production. Possible value 51 for majority."
      }
    },
    "version": 1
  },
  "userdoc": {
    "kind": "user",
    "methods": {
      "quorum()": {
        "notice": "module:user-config"
      }
    },
    "version": 1
  },
  "storageLayout": {
    "storage": [
      {
        "astId": 2561,
        "contract": "contracts/DAO/GovernorContract.sol:GovernorContract",
        "label": "_executorContract",
        "offset": 0,
        "slot": "0",
        "type": "t_contract(IExecutor)427"
      },
      {
        "astId": 1260,
        "contract": "contracts/DAO/GovernorContract.sol:GovernorContract",
        "label": "_name",
        "offset": 0,
        "slot": "1",
        "type": "t_string_storage"
      },
      {
        "astId": 1266,
        "contract": "contracts/DAO/GovernorContract.sol:GovernorContract",
        "label": "_proposals",
        "offset": 0,
        "slot": "2",
        "type": "t_mapping(t_uint256,t_struct(ProposalCore)1238_storage)"
      },
      {
        "astId": 2652,
        "contract": "contracts/DAO/GovernorContract.sol:GovernorContract",
        "label": "_votingPeriod",
        "offset": 0,
        "slot": "3",
        "type": "t_uint256"
      },
      {
        "astId": 2330,
        "contract": "contracts/DAO/GovernorContract.sol:GovernorContract",
        "label": "_proposalVotes",
        "offset": 0,
        "slot": "4",
        "type": "t_mapping(t_uint256,t_struct(ProposalVote)2325_storage)"
      },
      {
        "astId": 2728,
        "contract": "contracts/DAO/GovernorContract.sol:GovernorContract",
        "label": "userRegistry",
        "offset": 0,
        "slot": "5",
        "type": "t_contract(IUserRegistry)595"
      }
    ],
    "types": {
      "t_address": {
        "encoding": "inplace",
        "label": "address",
        "numberOfBytes": "20"
      },
      "t_bool": {
        "encoding": "inplace",
        "label": "bool",
        "numberOfBytes": "1"
      },
      "t_contract(IExecutor)427": {
        "encoding": "inplace",
        "label": "contract IExecutor",
        "numberOfBytes": "20"
      },
      "t_contract(IUserRegistry)595": {
        "encoding": "inplace",
        "label": "contract IUserRegistry",
        "numberOfBytes": "20"
      },
      "t_mapping(t_address,t_bool)": {
        "encoding": "mapping",
        "key": "t_address",
        "label": "mapping(address => bool)",
        "numberOfBytes": "32",
        "value": "t_bool"
      },
      "t_mapping(t_uint256,t_struct(ProposalCore)1238_storage)": {
        "encoding": "mapping",
        "key": "t_uint256",
        "label": "mapping(uint256 => struct Governor.ProposalCore)",
        "numberOfBytes": "32",
        "value": "t_struct(ProposalCore)1238_storage"
      },
      "t_mapping(t_uint256,t_struct(ProposalVote)2325_storage)": {
        "encoding": "mapping",
        "key": "t_uint256",
        "label": "mapping(uint256 => struct GovernorCountingSimple.ProposalVote)",
        "numberOfBytes": "32",
        "value": "t_struct(ProposalVote)2325_storage"
      },
      "t_string_storage": {
        "encoding": "bytes",
        "label": "string",
        "numberOfBytes": "32"
      },
      "t_struct(ProposalCore)1238_storage": {
        "encoding": "inplace",
        "label": "struct Governor.ProposalCore",
        "members": [
          {
            "astId": 1229,
            "contract": "contracts/DAO/GovernorContract.sol:GovernorContract",
            "label": "voteStart",
            "offset": 0,
            "slot": "0",
            "type": "t_uint64"
          },
          {
            "astId": 1231,
            "contract": "contracts/DAO/GovernorContract.sol:GovernorContract",
            "label": "proposer",
            "offset": 8,
            "slot": "0",
            "type": "t_address"
          },
          {
            "astId": 1233,
            "contract": "contracts/DAO/GovernorContract.sol:GovernorContract",
            "label": "voteEnd",
            "offset": 0,
            "slot": "1",
            "type": "t_uint64"
          },
          {
            "astId": 1235,
            "contract": "contracts/DAO/GovernorContract.sol:GovernorContract",
            "label": "executed",
            "offset": 8,
            "slot": "1",
            "type": "t_bool"
          },
          {
            "astId": 1237,
            "contract": "contracts/DAO/GovernorContract.sol:GovernorContract",
            "label": "canceled",
            "offset": 9,
            "slot": "1",
            "type": "t_bool"
          }
        ],
        "numberOfBytes": "64"
      },
      "t_struct(ProposalVote)2325_storage": {
        "encoding": "inplace",
        "label": "struct GovernorCountingSimple.ProposalVote",
        "members": [
          {
            "astId": 2316,
            "contract": "contracts/DAO/GovernorContract.sol:GovernorContract",
            "label": "againstVotes",
            "offset": 0,
            "slot": "0",
            "type": "t_uint256"
          },
          {
            "astId": 2318,
            "contract": "contracts/DAO/GovernorContract.sol:GovernorContract",
            "label": "forVotes",
            "offset": 0,
            "slot": "1",
            "type": "t_uint256"
          },
          {
            "astId": 2320,
            "contract": "contracts/DAO/GovernorContract.sol:GovernorContract",
            "label": "abstainVotes",
            "offset": 0,
            "slot": "2",
            "type": "t_uint256"
          },
          {
            "astId": 2324,
            "contract": "contracts/DAO/GovernorContract.sol:GovernorContract",
            "label": "hasVoted",
            "offset": 0,
            "slot": "3",
            "type": "t_mapping(t_address,t_bool)"
          }
        ],
        "numberOfBytes": "128"
      },
      "t_uint256": {
        "encoding": "inplace",
        "label": "uint256",
        "numberOfBytes": "32"
      },
      "t_uint64": {
        "encoding": "inplace",
        "label": "uint64",
        "numberOfBytes": "8"
      }
    }
  }
}