{
  "address": "0x30e4eCA6684AA4F98Bc2F1242828De9f9E3d4D47",
  "abi": [
    {
      "inputs": [
        {
          "internalType": "address",
          "name": "userRegistry_",
          "type": "address"
        }
      ],
      "stateMutability": "nonpayable",
      "type": "constructor"
    },
    {
      "inputs": [],
      "name": "ERC1167FailedCreateClone",
      "type": "error"
    },
    {
      "inputs": [],
      "name": "ForbiddenTransferToZeroAddress",
      "type": "error"
    },
    {
      "inputs": [],
      "name": "UserNotOwner",
      "type": "error"
    },
    {
      "inputs": [
        {
          "internalType": "address",
          "name": "supplychainManager_",
          "type": "address"
        },
        {
          "internalType": "string",
          "name": "contractDescription_",
          "type": "string"
        },
        {
          "internalType": "string[]",
          "name": "requiredUpdateAttributesKeys_",
          "type": "string[]"
        }
      ],
      "name": "create",
      "outputs": [
        {
          "internalType": "address",
          "name": "",
          "type": "address"
        }
      ],
      "stateMutability": "nonpayable",
      "type": "function"
    },
    {
      "inputs": [
        {
          "internalType": "address",
          "name": "sender_",
          "type": "address"
        }
      ],
      "name": "init",
      "outputs": [],
      "stateMutability": "nonpayable",
      "type": "function"
    },
    {
      "inputs": [],
      "name": "isOwner",
      "outputs": [
        {
          "internalType": "bool",
          "name": "",
          "type": "bool"
        }
      ],
      "stateMutability": "view",
      "type": "function"
    },
    {
      "inputs": [],
      "name": "owner",
      "outputs": [
        {
          "internalType": "address",
          "name": "",
          "type": "address"
        }
      ],
      "stateMutability": "view",
      "type": "function"
    },
    {
      "inputs": [
        {
          "internalType": "address",
          "name": "newOwner",
          "type": "address"
        }
      ],
      "name": "transferOwnership",
      "outputs": [],
      "stateMutability": "nonpayable",
      "type": "function"
    }
  ],
  "transactionHash": "0x14c388a4b95b8caa2bf1e06fe6079c80d1735497cf63c16c06985db81e4cb8cd",
  "args": [
    "0xBA078cE2346d028fC3c314eda8EBf54eC7Bb0df9"
  ],
  "numDeployments": 1,
  "solcInputHash": "f7d442adf3a01c94d3c08e2deef7bbc6",
  "bytecode": "0x60a060405234801561001057600080fd5b5060405161239938038061239983398101604081905261002f916100a0565b60008054336001600160a01b031991821617909155600180549091166001600160a01b03831617905560405161006490610093565b604051809103906000f080158015610080573d6000803e3d6000fd5b506001600160a01b0316608052506100d0565b611bbc806107dd83390190565b6000602082840312156100b257600080fd5b81516001600160a01b03811681146100c957600080fd5b9392505050565b6080516106f26100eb600039600061014201526106f26000f3fe608060405234801561001057600080fd5b50600436106100675760003560e01c80638da5cb5b116100505780638da5cb5b146100b15780638f32d59b146100c4578063f2fde38b146100e257600080fd5b806319ab453c1461006c57806351f08dee14610081575b600080fd5b61007f61007a3660046103d6565b6100f5565b005b61009461008f366004610458565b610131565b6040516001600160a01b0390911681526020015b60405180910390f35b600054610094906001600160a01b031681565b6000546001600160a01b0316331460405190151581526020016100a8565b61007f6100f03660046103d6565b610278565b6000546001600160a01b031661012e576000805473ffffffffffffffffffffffffffffffffffffffff19166001600160a01b0383161790555b50565b600061013b6102ef565b60006101667f0000000000000000000000000000000000000000000000000000000000000000610334565b6001546040517f677b61ce0000000000000000000000000000000000000000000000000000000081529192506001600160a01b038084169263677b61ce926101bc92169033908b908b908b908b906004016105d4565b600060405180830381600087803b1580156101d657600080fd5b505af11580156101ea573d6000803e3d6000fd5b50506001546040517f76af28ed0000000000000000000000000000000000000000000000000000000081526001600160a01b038a81166004830152858116602483015290911692506376af28ed9150604401600060405180830381600087803b15801561025657600080fd5b505af115801561026a573d6000803e3d6000fd5b509298975050505050505050565b6102806102ef565b6001600160a01b0381166102c0576040517f83a3770b00000000000000000000000000000000000000000000000000000000815260040160405180910390fd5b6000805473ffffffffffffffffffffffffffffffffffffffff19166001600160a01b0392909216919091179055565b6000546001600160a01b03163314610332576040517efa70d300000000000000000000000000000000000000000000000000000000815260040160405180910390fd5b565b6000763d602d80600a3d3981f3363d3d373d3d3d363d730000008260601b60e81c176000526e5af43d82803e903d91602b57fd5bf38260781b17602052603760096000f090506001600160a01b0381166103ba576040517fc2f868f400000000000000000000000000000000000000000000000000000000815260040160405180910390fd5b919050565b80356001600160a01b03811681146103ba57600080fd5b6000602082840312156103e857600080fd5b6103f1826103bf565b9392505050565b7f4e487b7100000000000000000000000000000000000000000000000000000000600052604160045260246000fd5b604051601f8201601f1916810167ffffffffffffffff81118282101715610450576104506103f8565b604052919050565b6000806000806060858703121561046e57600080fd5b610477856103bf565b935060208086013567ffffffffffffffff8082111561049557600080fd5b818801915088601f8301126104a957600080fd5b8135818111156104b857600080fd5b89848285010111156104c957600080fd5b9183019550909350604087013590808211156104e457600080fd5b818801915088601f8301126104f857600080fd5b81358181111561050a5761050a6103f8565b8060051b610519858201610427565b918252838101850191858101908c84111561053357600080fd5b86860192505b838310156105c3578235858111156105515760008081fd5b8601603f81018e136105635760008081fd5b8781013586811115610577576105776103f8565b610589601f8201601f19168a01610427565b8181528f604083850101111561059f5760008081fd5b81604084018b83013760009181018a01919091528352509186019190860190610539565b999c989b5096995050505050505050565b60006001600160a01b038089168352602081891681850152818816604085015260a060608501528560a0850152858760c0860137600091508160c08786010152601f19601f8181890116860160c0810160c088830301608089015280895180835260e08401915060e08160051b8501019250868b01885b828110156106a45785850360df19018452815180518087528b5b81811015610680578281018c01518882018d01528b01610665565b508681018b018c90528801891690950189019450928801929088019060010161064b565b5050505080965050505050505097965050505050505056fea2646970667358221220e848107e1cedd8011b7882d22c0875463deff783924e6127cf9beb144b910edb64736f6c63430008130033608060405234801561001057600080fd5b50600080546001600160a01b03191633179055611b8a806100326000396000f3fe608060405234801561001057600080fd5b50600436106101275760003560e01c80638f32d59b116100a9578063bed37b421161007b578063d500958411610063578063d500958414610299578063f2fde38b146102aa578063f78fa143146102bd57005b8063bed37b4214610289578063d12bcb121461029157005b80638f32d59b1461023357806391ddadf414610251578063a51b3a1c14610261578063ae2f07051461027657005b8063479ebc4f116100fa5780635ac44282116100e25780635ac44282146101d5578063677b61ce146101f55780638da5cb5b1461020857005b8063479ebc4f146101805780634bf5d7e91461019357005b80631677fecb1461012957806319ab453c146101475780632439bc8b1461015a57806339d33d031461016d575b005b6101316102c5565b60405161013e91906112c4565b60405180910390f35b61012761015536600461133b565b61039e565b610127610168366004611416565b6103cd565b61012761017b36600461145d565b610487565b61012761018e366004611530565b6104d6565b60408051808201909152600e81527f6d6f64653d74696d657374616d7000000000000000000000000000000000000060208201525b60405161013e91906115b0565b6101e86101e33660046115c3565b610610565b60405161013e9190611727565b6101276102033660046117f6565b610a78565b60005461021b906001600160a01b031681565b6040516001600160a01b03909116815260200161013e565b6000546001600160a01b03163314604051901515815260200161013e565b425b60405190815260200161013e565b610269600281565b60405161013e91906118c4565b6102536102843660046118d2565b610aeb565b610269600181565b6101c8610cd8565b6003546001600160a01b031661021b565b6101276102b836600461133b565b610d6a565b610269600081565b60606005805480602002602001604051908101604052809291908181526020016000905b828210156103955783829060005260206000200180546103089061192c565b80601f01602080910402602001604051908101604052809291908181526020018280546103349061192c565b80156103815780601f1061035657610100808354040283529160200191610381565b820191906000526020600020905b81548152906001019060200180831161036457829003601f168201915b5050505050815260200190600101906102e9565b50505050905090565b6000546001600160a01b03166103ca57600080546001600160a01b0319166001600160a01b0383161790555b50565b6103d633610dd4565b60008281526001602052604090206103ed81610e97565b60006103f883610ea9565b600383018054600181810183556000928352602092839020845160029093020180549385015165ffffffffffff16600160a01b027fffffffffffff00000000000000000000000000000000000000000000000000009094166001600160a01b039093169290921792909217815560408301519293508392909182019061047e90826119b1565b50505050505050565b61048f610ef5565b61049881610f3a565b600082815260016020819052604090912001805482919060ff60a01b1916600160a01b8360028111156104cd576104cd6115dc565b02179055505050565b6104df33610dd4565b60008481526001602052604090206104f681610e97565b6104ff84610dd4565b61050881610fc3565b6105118261101c565b600061051e858585611058565b6004808401805460018181018355600092835260209283902085519290940290930180546001600160a01b039283166001600160a01b031990911617815582850151805194820180549482015165ffffffffffff16600160a01b027fffffffffffff000000000000000000000000000000000000000000000000000090951695909316949094179290921781556040830151939450849391929160028401906105c790826119b1565b505050604082015180516105e5916003840191602090910190611168565b5050505060010180546001600160a01b0319166001600160a01b039490941693909317909255505050565b6106496040805160c081018252600080825260208201819052909182019081526020016060815260200160608152602001606081525090565b600082815260016020818152604092839020835160c08101855281548152928101546001600160a01b038116928401929092529192830190600160a01b900460ff16600281111561069c5761069c6115dc565b60028111156106ad576106ad6115dc565b81526020016002820180546106c19061192c565b80601f01602080910402602001604051908101604052809291908181526020018280546106ed9061192c565b801561073a5780601f1061070f5761010080835404028352916020019161073a565b820191906000526020600020905b81548152906001019060200180831161071d57829003601f168201915b5050505050815260200160038201805480602002602001604051908101604052809291908181526020016000905b82821015610857576000848152602090819020604080516060810182526002860290920180546001600160a01b0381168452600160a01b900465ffffffffffff1693830193909352600183018054929392918401916107c69061192c565b80601f01602080910402602001604051908101604052809291908181526020018280546107f29061192c565b801561083f5780601f106108145761010080835404028352916020019161083f565b820191906000526020600020905b81548152906001019060200180831161082257829003601f168201915b50505050508152505081526020019060010190610768565b50505050815260200160048201805480602002602001604051908101604052809291908181526020016000905b82821015610a6a57600084815260209081902060408051606080820183526004870290930180546001600160a01b039081168352835194850184526001820180549182168652600160a01b90910465ffffffffffff16858701526002820180549396929592870194929391928401916108fc9061192c565b80601f01602080910402602001604051908101604052809291908181526020018280546109289061192c565b80156109755780601f1061094a57610100808354040283529160200191610975565b820191906000526020600020905b81548152906001019060200180831161095857829003601f168201915b505050505081525050815260200160038201805480602002602001604051908101604052809291908181526020016000905b82821015610a535783829060005260206000200180546109c69061192c565b80601f01602080910402602001604051908101604052809291908181526020018280546109f29061192c565b8015610a3f5780601f10610a1457610100808354040283529160200191610a3f565b820191906000526020600020905b815481529060010190602001808311610a2257829003601f168201915b5050505050815260200190600101906109a7565b505050508152505081526020019060010190610884565b505050915250909392505050565b6002546001600160a01b0316610ae357600280546001600160a01b038089166001600160a01b03199283161790925560038054928716929091169190911790556004610ac5838583611a71565b508051610ad9906005906020840190611168565b50610ae38561039e565b505050505050565b6000610af633610dd4565b6000610b376040805133602082015242918101919091524460608201526000906080016040516020818303038152906040528051906020012060001c905090565b600081815260016020526040902081815590915060028101610b5986826119b1565b506001810180547fffffffffffffffffffffff000000000000000000000000000000000000000000163360ff60a01b19811691909117909155604080516000808252602082019092529091610bcb91879084610bc5565b6060815260200190600190039081610bb05790505b50611058565b6004808401805460018181018355600092835260209283902085519290940290930180546001600160a01b039283166001600160a01b031990911617815582850151805194820180549482015165ffffffffffff16600160a01b027fffffffffffff00000000000000000000000000000000000000000000000000009095169590931694909417929092178155604083015193945084939192916002840190610c7490826119b1565b50505060408201518051610c92916003840191602090910190611168565b505082546040519081523391507f1d603865226abc60e68a5691d0bbce1ca0d4384d996ba9a7977db3687750d3779060200160405180910390a250909150505b92915050565b606060048054610ce79061192c565b80601f0160208091040260200160405190810160405280929190818152602001828054610d139061192c565b8015610d605780601f10610d3557610100808354040283529160200191610d60565b820191906000526020600020905b815481529060010190602001808311610d4357829003601f168201915b5050505050905090565b610d72610ef5565b6001600160a01b038116610db2576040517f83a3770b00000000000000000000000000000000000000000000000000000000815260040160405180910390fd5b600080546001600160a01b0319166001600160a01b0392909216919091179055565b6002546040517f62e1f7450000000000000000000000000000000000000000000000000000000081523060048201526001600160a01b038381166024830152909116906362e1f74590604401602060405180830381865afa158015610e3d573d6000803e3d6000fd5b505050506040513d601f19601f82011682018060405250810190610e619190611b32565b6103ca576040517f44d9522c00000000000000000000000000000000000000000000000000000000815260040160405180910390fd5b610ea081611093565b6103ca816110ce565b60408051606080820183526000808352602083015291810191909152604080516060810190915233815260208101610ee042611114565b65ffffffffffff168152602001929092525090565b6000546001600160a01b03163314610f38576040517efa70d300000000000000000000000000000000000000000000000000000000815260040160405180910390fd5b565b6000816002811115610f4e57610f4e6115dc565b14158015610f6e57506001816002811115610f6b57610f6b6115dc565b14155b8015610f8c57506002816002811115610f8957610f896115dc565b14155b156103ca576040517f339aba6600000000000000000000000000000000000000000000000000000000815260040160405180910390fd5b60006001820154600160a01b900460ff166002811115610fe557610fe56115dc565b146103ca576040517f6a1b8a0f00000000000000000000000000000000000000000000000000000000815260040160405180910390fd5b6005548151146103ca576040517fa7e8199c00000000000000000000000000000000000000000000000000000000815260040160405180910390fd5b6110606111ba565b6040518060600160405280856001600160a01b0316815260200161108385610ea9565b8152602001929092525092915050565b80546000036103ca576040517f4ee9bc0f00000000000000000000000000000000000000000000000000000000815260040160405180910390fd5b60018101546001600160a01b031633146103ca576040517f45f2373800000000000000000000000000000000000000000000000000000000815260040160405180910390fd5b600065ffffffffffff821115611164576040517f6dfcc650000000000000000000000000000000000000000000000000000000008152603060048201526024810183905260440160405180910390fd5b5090565b8280548282559060005260206000209081019282156111ae579160200282015b828111156111ae578251829061119e90826119b1565b5091602001919060010190611188565b50611164929150611217565b604051806060016040528060006001600160a01b0316815260200161120a604051806060016040528060006001600160a01b03168152602001600065ffffffffffff168152602001606081525090565b8152602001606081525090565b8082111561116457600061122b8282611234565b50600101611217565b5080546112409061192c565b6000825580601f10611250575050565b601f0160209004906000526020600020908101906103ca91905b80821115611164576000815560010161126a565b6000815180845260005b818110156112a457602081850181015186830182015201611288565b506000602082860101526020601f19601f83011685010191505092915050565b6000602080830181845280855180835260408601915060408160051b870101925083870160005b8281101561131957603f1988860301845261130785835161127e565b945092850192908501906001016112eb565b5092979650505050505050565b6001600160a01b03811681146103ca57600080fd5b60006020828403121561134d57600080fd5b813561135881611326565b9392505050565b634e487b7160e01b600052604160045260246000fd5b604051601f8201601f1916810167ffffffffffffffff8111828210171561139e5761139e61135f565b604052919050565b600082601f8301126113b757600080fd5b813567ffffffffffffffff8111156113d1576113d161135f565b6113e4601f8201601f1916602001611375565b8181528460208386010111156113f957600080fd5b816020850160208301376000918101602001919091529392505050565b6000806040838503121561142957600080fd5b82359150602083013567ffffffffffffffff81111561144757600080fd5b611453858286016113a6565b9150509250929050565b6000806040838503121561147057600080fd5b8235915060208301356003811061148657600080fd5b809150509250929050565b600082601f8301126114a257600080fd5b8135602067ffffffffffffffff808311156114bf576114bf61135f565b8260051b6114ce838201611375565b93845285810183019383810190888611156114e857600080fd5b84880192505b85831015611524578235848111156115065760008081fd5b6115148a87838c01016113a6565b83525091840191908401906114ee565b98975050505050505050565b6000806000806080858703121561154657600080fd5b84359350602085013561155881611326565b9250604085013567ffffffffffffffff8082111561157557600080fd5b611581888389016113a6565b9350606087013591508082111561159757600080fd5b506115a487828801611491565b91505092959194509250565b602081526000611358602083018461127e565b6000602082840312156115d557600080fd5b5035919050565b634e487b7160e01b600052602160045260246000fd5b6003811061161057634e487b7160e01b600052602160045260246000fd5b9052565b6001600160a01b03815116825265ffffffffffff6020820151166020830152600060408201516060604085015261164e606085018261127e565b949350505050565b600081518084526020808501808196506005915083821b81018387016000805b87811015611718578484038b52825160606001600160a01b03825116865288820151818a8801526116a982880182611614565b604093840151888203948901949094528351808252938b01939092508a83019150808a1b83018b01865b8281101561170157601f198583030184526116ef82875161127e565b958d0195938d019391506001016116d3565b509e8b019e97505050938801935050600101611676565b50919998505050505050505050565b600060208083528351818401526001600160a01b0381850151166040840152604084015161175860608501826115f2565b50606084015160c0608085015261177260e085018261127e565b6080860151601f19868303810160a088015281518084529293509084019184840190600581901b8501860160005b828110156117cc57848783030184526117ba828751611614565b958801959388019391506001016117a0565b5060a08a01519650838982030160c08a01526117e88188611656565b9a9950505050505050505050565b60008060008060008060a0878903121561180f57600080fd5b863561181a81611326565b9550602087013561182a81611326565b9450604087013561183a81611326565b9350606087013567ffffffffffffffff8082111561185757600080fd5b818901915089601f83011261186b57600080fd5b81358181111561187a57600080fd5b8a602082850101111561188c57600080fd5b6020830195508094505060808901359150808211156118aa57600080fd5b506118b789828a01611491565b9150509295509295509295565b60208101610cd282846115f2565b600080604083850312156118e557600080fd5b823567ffffffffffffffff808211156118fd57600080fd5b611909868387016113a6565b9350602085013591508082111561191f57600080fd5b50611453858286016113a6565b600181811c9082168061194057607f821691505b60208210810361196057634e487b7160e01b600052602260045260246000fd5b50919050565b601f8211156119ac57600081815260208120601f850160051c8101602086101561198d5750805b601f850160051c820191505b81811015610ae357828155600101611999565b505050565b815167ffffffffffffffff8111156119cb576119cb61135f565b6119df816119d9845461192c565b84611966565b602080601f831160018114611a1457600084156119fc5750858301515b600019600386901b1c1916600185901b178555610ae3565b600085815260208120601f198616915b82811015611a4357888601518255948401946001909101908401611a24565b5085821015611a615787850151600019600388901b60f8161c191681555b5050505050600190811b01905550565b67ffffffffffffffff831115611a8957611a8961135f565b611a9d83611a97835461192c565b83611966565b6000601f841160018114611ad15760008515611ab95750838201355b600019600387901b1c1916600186901b178355611b2b565b600083815260209020601f19861690835b82811015611b025786850135825560209485019460019092019101611ae2565b5086821015611b1f5760001960f88860031b161c19848701351681555b505060018560011b0183555b5050505050565b600060208284031215611b4457600080fd5b8151801515811461135857600080fdfea2646970667358221220e9c1b983ab7e453fdfa1857bd3598ba03a42c9dc9d3e91ff6b14af6fc8a4b23f64736f6c63430008130033",
  "devdoc": {
    "errors": {
      "ERC1167FailedCreateClone()": [
        {
          "details": "A clone instance deployment failed."
        }
      ]
    },
    "kind": "dev",
    "methods": {
      "init(address)": {
        "details": "For use after cloning a contract, where initial memory is 0"
      }
    },
    "version": 1
  },
  "userdoc": {
    "kind": "user",
    "methods": {},
    "version": 1
  },
  "storageLayout": {
    "storage": [
      {
        "astId": 5634,
        "contract": "contracts/Traceability/TraceabilityContractFactory.sol:TraceabilityContractFactory",
        "label": "owner",
        "offset": 0,
        "slot": "0",
        "type": "t_address"
      },
      {
        "astId": 5536,
        "contract": "contracts/Traceability/TraceabilityContractFactory.sol:TraceabilityContractFactory",
        "label": "userRegistry",
        "offset": 0,
        "slot": "1",
        "type": "t_contract(IUserRegistry)595"
      }
    ],
    "types": {
      "t_address": {
        "encoding": "inplace",
        "label": "address",
        "numberOfBytes": "20"
      },
      "t_contract(IUserRegistry)595": {
        "encoding": "inplace",
        "label": "contract IUserRegistry",
        "numberOfBytes": "20"
      }
    }
  }
}