{
  "address": "0x55825ec831a40578c4A41AbBb13253D0aAE0080A",
  "abi": [
    {
      "inputs": [
        {
          "internalType": "address",
          "name": "userRegistry_",
          "type": "address"
        }
      ],
      "stateMutability": "nonpayable",
      "type": "constructor"
    },
    {
      "inputs": [],
      "name": "ERC1167FailedCreateClone",
      "type": "error"
    },
    {
      "inputs": [],
      "name": "ForbiddenTransferToZeroAddress",
      "type": "error"
    },
    {
      "inputs": [],
      "name": "UserNotOwner",
      "type": "error"
    },
    {
      "inputs": [
        {
          "internalType": "address",
          "name": "supplychainManager_",
          "type": "address"
        },
        {
          "internalType": "string",
          "name": "contractDescription_",
          "type": "string"
        },
        {
          "internalType": "string[]",
          "name": "requiredUpdateAttributesKeys_",
          "type": "string[]"
        }
      ],
      "name": "create",
      "outputs": [
        {
          "internalType": "address",
          "name": "",
          "type": "address"
        }
      ],
      "stateMutability": "nonpayable",
      "type": "function"
    },
    {
      "inputs": [
        {
          "internalType": "address",
          "name": "sender_",
          "type": "address"
        }
      ],
      "name": "init",
      "outputs": [],
      "stateMutability": "nonpayable",
      "type": "function"
    },
    {
      "inputs": [],
      "name": "isOwner",
      "outputs": [
        {
          "internalType": "bool",
          "name": "",
          "type": "bool"
        }
      ],
      "stateMutability": "view",
      "type": "function"
    },
    {
      "inputs": [],
      "name": "owner",
      "outputs": [
        {
          "internalType": "address",
          "name": "",
          "type": "address"
        }
      ],
      "stateMutability": "view",
      "type": "function"
    },
    {
      "inputs": [
        {
          "internalType": "address",
          "name": "newOwner",
          "type": "address"
        }
      ],
      "name": "transferOwnership",
      "outputs": [],
      "stateMutability": "nonpayable",
      "type": "function"
    }
  ],
  "transactionHash": "0x7598f7203477b3945ccaa5bf549482377846d7d28e9801d22415daeca4362b3e",
  "args": [
    "0x8A2C4f13C2F09cfe3A910C87B8Cb3cf57122202c"
  ],
  "numDeployments": 1,
  "solcInputHash": "187484e067f48039c2365fa39cabe1b7",
  "bytecode": "0x60a060405234801561001057600080fd5b50604051611f34380380611f3483398101604081905261002f916100a0565b60008054336001600160a01b031991821617909155600180549091166001600160a01b03831617905560405161006490610093565b604051809103906000f080158015610080573d6000803e3d6000fd5b506001600160a01b0316608052506100d0565b611757806107dd83390190565b6000602082840312156100b257600080fd5b81516001600160a01b03811681146100c957600080fd5b9392505050565b6080516106f26100eb600039600061014201526106f26000f3fe608060405234801561001057600080fd5b50600436106100675760003560e01c80638da5cb5b116100505780638da5cb5b146100b15780638f32d59b146100c4578063f2fde38b146100e257600080fd5b806319ab453c1461006c57806351f08dee14610081575b600080fd5b61007f61007a3660046103d6565b6100f5565b005b61009461008f366004610458565b610131565b6040516001600160a01b0390911681526020015b60405180910390f35b600054610094906001600160a01b031681565b6000546001600160a01b0316331460405190151581526020016100a8565b61007f6100f03660046103d6565b610278565b6000546001600160a01b031661012e576000805473ffffffffffffffffffffffffffffffffffffffff19166001600160a01b0383161790555b50565b600061013b6102ef565b60006101667f0000000000000000000000000000000000000000000000000000000000000000610334565b6001546040517f677b61ce0000000000000000000000000000000000000000000000000000000081529192506001600160a01b038084169263677b61ce926101bc92169033908b908b908b908b906004016105d4565b600060405180830381600087803b1580156101d657600080fd5b505af11580156101ea573d6000803e3d6000fd5b50506001546040517f76af28ed0000000000000000000000000000000000000000000000000000000081526001600160a01b038a81166004830152858116602483015290911692506376af28ed9150604401600060405180830381600087803b15801561025657600080fd5b505af115801561026a573d6000803e3d6000fd5b509298975050505050505050565b6102806102ef565b6001600160a01b0381166102c0576040517f83a3770b00000000000000000000000000000000000000000000000000000000815260040160405180910390fd5b6000805473ffffffffffffffffffffffffffffffffffffffff19166001600160a01b0392909216919091179055565b6000546001600160a01b03163314610332576040517efa70d300000000000000000000000000000000000000000000000000000000815260040160405180910390fd5b565b6000763d602d80600a3d3981f3363d3d373d3d3d363d730000008260601b60e81c176000526e5af43d82803e903d91602b57fd5bf38260781b17602052603760096000f090506001600160a01b0381166103ba576040517fc2f868f400000000000000000000000000000000000000000000000000000000815260040160405180910390fd5b919050565b80356001600160a01b03811681146103ba57600080fd5b6000602082840312156103e857600080fd5b6103f1826103bf565b9392505050565b7f4e487b7100000000000000000000000000000000000000000000000000000000600052604160045260246000fd5b604051601f8201601f1916810167ffffffffffffffff81118282101715610450576104506103f8565b604052919050565b6000806000806060858703121561046e57600080fd5b610477856103bf565b935060208086013567ffffffffffffffff8082111561049557600080fd5b818801915088601f8301126104a957600080fd5b8135818111156104b857600080fd5b89848285010111156104c957600080fd5b9183019550909350604087013590808211156104e457600080fd5b818801915088601f8301126104f857600080fd5b81358181111561050a5761050a6103f8565b8060051b610519858201610427565b918252838101850191858101908c84111561053357600080fd5b86860192505b838310156105c3578235858111156105515760008081fd5b8601603f81018e136105635760008081fd5b8781013586811115610577576105776103f8565b610589601f8201601f19168a01610427565b8181528f604083850101111561059f5760008081fd5b81604084018b83013760009181018a01919091528352509186019190860190610539565b999c989b5096995050505050505050565b60006001600160a01b038089168352602081891681850152818816604085015260a060608501528560a0850152858760c0860137600091508160c08786010152601f19601f8181890116860160c0810160c088830301608089015280895180835260e08401915060e08160051b8501019250868b01885b828110156106a45785850360df19018452815180518087528b5b81811015610680578281018c01518882018d01528b01610665565b508681018b018c90528801891690950189019450928801929088019060010161064b565b5050505080965050505050505097965050505050505056fea2646970667358221220a13585d2322a51d517e88f2e6f191e8e7f4cb54d1b27495485181615cecc70b064736f6c63430008130033608060405234801561001057600080fd5b50600080546001600160a01b03191633179055611725806100326000396000f3fe608060405234801561001057600080fd5b50600436106101275760003560e01c80638f32d59b116100a9578063bed37b421161007b578063d500958411610063578063d500958414610299578063f2fde38b146102aa578063f78fa143146102bd57005b8063bed37b4214610289578063d12bcb121461029157005b80638f32d59b1461023357806391ddadf414610251578063a51b3a1c14610261578063ae2f07051461027657005b8063479ebc4f116100fa5780635ac44282116100e25780635ac44282146101d5578063677b61ce146101f55780638da5cb5b1461020857005b8063479ebc4f146101805780634bf5d7e91461019357005b80631677fecb1461012957806319ab453c146101475780632439bc8b1461015a57806339d33d031461016d575b005b6101316102c5565b60405161013e9190610f08565b60405180910390f35b610127610155366004610f7f565b61039e565b61012761016836600461105a565b6103cd565b61012761017b3660046110a1565b6103fc565b61012761018e366004611174565b61044b565b60408051808201909152600e81527f6d6f64653d74696d657374616d7000000000000000000000000000000000000060208201525b60405161013e91906111f4565b6101e86101e3366004611207565b610519565b60405161013e9190611258565b61012761020336600461136d565b610785565b60005461021b906001600160a01b031681565b6040516001600160a01b03909116815260200161013e565b6000546001600160a01b03163314604051901515815260200161013e565b425b60405190815260200161013e565b610269600281565b60405161013e919061143b565b610253610284366004611449565b6107f8565b610269600181565b6101c861097b565b6003546001600160a01b031661021b565b6101276102b8366004610f7f565b610a0d565b610269600081565b60606005805480602002602001604051908101604052809291908181526020016000905b82821015610395578382906000526020600020018054610308906114a3565b80601f0160208091040260200160405190810160405280929190818152602001828054610334906114a3565b80156103815780601f1061035657610100808354040283529160200191610381565b820191906000526020600020905b81548152906001019060200180831161036457829003601f168201915b5050505050815260200190600101906102e9565b50505050905090565b6000546001600160a01b03166103ca57600080546001600160a01b0319166001600160a01b0383161790555b50565b6103d633610a77565b60008281526001602052604090206103ed81610b3a565b6103f78383610b4c565b505050565b610404610b93565b61040d81610bd8565b600082815260016020819052604090912001805482919060ff60a01b1916600160a01b83600281111561044257610442611220565b02179055505050565b61045433610a77565b600084815260016020526040902061046b81610b3a565b61047484610a77565b61047d81610c61565b61048682610cba565b600061049486868686610cf6565b600383018054600180820183556000928352602092839020845160029093020180546001600160a01b0319166001600160a01b03909316929092178255838301518051949550859492936104ee9392850192910190610e0d565b5050505060010180546001600160a01b0319166001600160a01b039490941693909317909255505050565b6040805160a0810182526000808252602082018190529181019190915260608082018190526080820152600082815260016020818152604092839020835160a08101855281548152928101546001600160a01b038116928401929092529192830190600160a01b900460ff16600281111561059657610596611220565b60028111156105a7576105a7611220565b81526020016002820180546105bb906114a3565b80601f01602080910402602001604051908101604052809291908181526020018280546105e7906114a3565b80156106345780601f1061060957610100808354040283529160200191610634565b820191906000526020600020905b81548152906001019060200180831161061757829003601f168201915b5050505050815260200160038201805480602002602001604051908101604052809291908181526020016000905b8282101561077757600084815260208082206040805180820182526002870290920180546001600160a01b03168352600181018054835181870281018701909452808452939591948681019491929084015b828210156107605783829060005260206000200180546106d3906114a3565b80601f01602080910402602001604051908101604052809291908181526020018280546106ff906114a3565b801561074c5780601f106107215761010080835404028352916020019161074c565b820191906000526020600020905b81548152906001019060200180831161072f57829003601f168201915b5050505050815260200190600101906106b4565b505050508152505081526020019060010190610662565b505050915250909392505050565b6002546001600160a01b03166107f057600280546001600160a01b038089166001600160a01b031992831617909255600380549287169290911691909117905560046107d2838583611523565b5080516107e6906005906020840190610e0d565b506107f08561039e565b505050505050565b600061080333610a77565b60006108446040805133602082015242918101919091524460608201526000906080016040516020818303038152906040528051906020012060001c905090565b60008181526001602052604090208181559091506002810161086686826115e4565b506001810180547fffffffffffffffffffffff000000000000000000000000000000000000000000163360ff60a01b198116919091179091556040805160008082526020820190925290916108db918591908890856108d5565b60608152602001906001900390816108c05790505b50610cf6565b600383018054600180820183556000928352602092839020845160029093020180546001600160a01b0319166001600160a01b03909316929092178255838301518051949550859492936109359392850192910190610e0d565b505082546040519081523391507f1d603865226abc60e68a5691d0bbce1ca0d4384d996ba9a7977db3687750d3779060200160405180910390a250909150505b92915050565b60606004805461098a906114a3565b80601f01602080910402602001604051908101604052809291908181526020018280546109b6906114a3565b8015610a035780601f106109d857610100808354040283529160200191610a03565b820191906000526020600020905b8154815290600101906020018083116109e657829003601f168201915b5050505050905090565b610a15610b93565b6001600160a01b038116610a55576040517f83a3770b00000000000000000000000000000000000000000000000000000000815260040160405180910390fd5b600080546001600160a01b0319166001600160a01b0392909216919091179055565b6002546040517f62e1f7450000000000000000000000000000000000000000000000000000000081523060048201526001600160a01b038381166024830152909116906362e1f74590604401602060405180830381865afa158015610ae0573d6000803e3d6000fd5b505050506040513d601f19601f82011682018060405250810190610b0491906116a4565b6103ca576040517f44d9522c00000000000000000000000000000000000000000000000000000000815260040160405180910390fd5b610b4381610d38565b6103ca81610d73565b33827f056f99be770e4f2e1ac78508e20abf6835d4d040e984f5002ce03f44a0348d5f610b7842610db9565b84604051610b879291906116c6565b60405180910390a35050565b6000546001600160a01b03163314610bd6576040517efa70d300000000000000000000000000000000000000000000000000000000815260040160405180910390fd5b565b6000816002811115610bec57610bec611220565b14158015610c0c57506001816002811115610c0957610c09611220565b14155b8015610c2a57506002816002811115610c2757610c27611220565b14155b156103ca576040517f339aba6600000000000000000000000000000000000000000000000000000000815260040160405180910390fd5b60006001820154600160a01b900460ff166002811115610c8357610c83611220565b146103ca576040517f6a1b8a0f00000000000000000000000000000000000000000000000000000000815260040160405180910390fd5b6005548151146103ca576040517fa7e8199c00000000000000000000000000000000000000000000000000000000815260040160405180910390fd5b604080518082019091526000815260606020820152610d158584610b4c565b50604080518082019091526001600160a01b039093168352602083015250919050565b80546000036103ca576040517f4ee9bc0f00000000000000000000000000000000000000000000000000000000815260040160405180910390fd5b60018101546001600160a01b031633146103ca576040517f45f2373800000000000000000000000000000000000000000000000000000000815260040160405180910390fd5b600065ffffffffffff821115610e09576040517f6dfcc650000000000000000000000000000000000000000000000000000000008152603060048201526024810183905260440160405180910390fd5b5090565b828054828255906000526020600020908101928215610e53579160200282015b82811115610e535782518290610e4390826115e4565b5091602001919060010190610e2d565b50610e099291505b80821115610e09576000610e6f8282610e78565b50600101610e5b565b508054610e84906114a3565b6000825580601f10610e94575050565b601f0160209004906000526020600020908101906103ca91905b80821115610e095760008155600101610eae565b6000815180845260005b81811015610ee857602081850181015186830182015201610ecc565b506000602082860101526020601f19601f83011685010191505092915050565b6000602080830181845280855180835260408601915060408160051b870101925083870160005b82811015610f5d57603f19888603018452610f4b858351610ec2565b94509285019290850190600101610f2f565b5092979650505050505050565b6001600160a01b03811681146103ca57600080fd5b600060208284031215610f9157600080fd5b8135610f9c81610f6a565b9392505050565b634e487b7160e01b600052604160045260246000fd5b604051601f8201601f1916810167ffffffffffffffff81118282101715610fe257610fe2610fa3565b604052919050565b600082601f830112610ffb57600080fd5b813567ffffffffffffffff81111561101557611015610fa3565b611028601f8201601f1916602001610fb9565b81815284602083860101111561103d57600080fd5b816020850160208301376000918101602001919091529392505050565b6000806040838503121561106d57600080fd5b82359150602083013567ffffffffffffffff81111561108b57600080fd5b61109785828601610fea565b9150509250929050565b600080604083850312156110b457600080fd5b823591506020830135600381106110ca57600080fd5b809150509250929050565b600082601f8301126110e657600080fd5b8135602067ffffffffffffffff8083111561110357611103610fa3565b8260051b611112838201610fb9565b938452858101830193838101908886111561112c57600080fd5b84880192505b858310156111685782358481111561114a5760008081fd5b6111588a87838c0101610fea565b8352509184019190840190611132565b98975050505050505050565b6000806000806080858703121561118a57600080fd5b84359350602085013561119c81610f6a565b9250604085013567ffffffffffffffff808211156111b957600080fd5b6111c588838901610fea565b935060608701359150808211156111db57600080fd5b506111e8878288016110d5565b91505092959194509250565b602081526000610f9c6020830184610ec2565b60006020828403121561121957600080fd5b5035919050565b634e487b7160e01b600052602160045260246000fd5b6003811061125457634e487b7160e01b600052602160045260246000fd5b9052565b600060208083528351818401528084015160406001600160a01b0380831682870152818701519250606061128e81880185611236565b80880151935060a060808801526112a860c0880185610ec2565b6080890151601f19898303810160a08b015281518084529296509087019187870190600581901b8801890160005b8281101561135c578982038501845285518051891683528b01518b83018a905280518a8401819052908c0190600581901b84018901908985019060005b8181101561134657605f1987850301835261132f848651610ec2565b93508f850194508f83019250600181019050611313565b505050968c0196948c01949250506001016112d6565b509c9b505050505050505050505050565b60008060008060008060a0878903121561138657600080fd5b863561139181610f6a565b955060208701356113a181610f6a565b945060408701356113b181610f6a565b9350606087013567ffffffffffffffff808211156113ce57600080fd5b818901915089601f8301126113e257600080fd5b8135818111156113f157600080fd5b8a602082850101111561140357600080fd5b60208301955080945050608089013591508082111561142157600080fd5b5061142e89828a016110d5565b9150509295509295509295565b602081016109758284611236565b6000806040838503121561145c57600080fd5b823567ffffffffffffffff8082111561147457600080fd5b61148086838701610fea565b9350602085013591508082111561149657600080fd5b5061109785828601610fea565b600181811c908216806114b757607f821691505b6020821081036114d757634e487b7160e01b600052602260045260246000fd5b50919050565b601f8211156103f757600081815260208120601f850160051c810160208610156115045750805b601f850160051c820191505b818110156107f057828155600101611510565b67ffffffffffffffff83111561153b5761153b610fa3565b61154f8361154983546114a3565b836114dd565b6000601f841160018114611583576000851561156b5750838201355b600019600387901b1c1916600186901b1783556115dd565b600083815260209020601f19861690835b828110156115b45786850135825560209485019460019092019101611594565b50868210156115d15760001960f88860031b161c19848701351681555b505060018560011b0183555b5050505050565b815167ffffffffffffffff8111156115fe576115fe610fa3565b6116128161160c84546114a3565b846114dd565b602080601f831160018114611647576000841561162f5750858301515b600019600386901b1c1916600185901b1785556107f0565b600085815260208120601f198616915b8281101561167657888601518255948401946001909101908401611657565b50858210156116945787850151600019600388901b60f8161c191681555b5050505050600190811b01905550565b6000602082840312156116b657600080fd5b81518015158114610f9c57600080fd5b65ffffffffffff831681526040602082015260006116e76040830184610ec2565b94935050505056fea2646970667358221220acd4611c826ff4fcf53e884a29d5924dbc5821e1ef2b5be8c3732abd2c3543ca64736f6c63430008130033",
  "devdoc": {
    "errors": {
      "ERC1167FailedCreateClone()": [
        {
          "details": "A clone instance deployment failed."
        }
      ]
    },
    "kind": "dev",
    "methods": {
      "init(address)": {
        "details": "For use after cloning a contract, where initial memory is 0"
      }
    },
    "version": 1
  },
  "userdoc": {
    "kind": "user",
    "methods": {},
    "version": 1
  },
  "storageLayout": {
    "storage": [
      {
        "astId": 2655,
        "contract": "contracts/Traceability/TraceabilityContractFactory.sol:TraceabilityContractFactory",
        "label": "owner",
        "offset": 0,
        "slot": "0",
        "type": "t_address"
      },
      {
        "astId": 2557,
        "contract": "contracts/Traceability/TraceabilityContractFactory.sol:TraceabilityContractFactory",
        "label": "userRegistry",
        "offset": 0,
        "slot": "1",
        "type": "t_contract(IUserRegistry)216"
      }
    ],
    "types": {
      "t_address": {
        "encoding": "inplace",
        "label": "address",
        "numberOfBytes": "20"
      },
      "t_contract(IUserRegistry)216": {
        "encoding": "inplace",
        "label": "contract IUserRegistry",
        "numberOfBytes": "20"
      }
    }
  }
}